:1000000000000000000000001520000000000000BB
:1000100083360C20BE190F20833EBE19833A031786
:10002000833EB3190A11B419232116208318C7215E
:10003000063533200704191BD1040335181B03347C
:100040002420981303359913D004181F070403358F
:10005000191F0331020098189918313BB1389D18C7
:100060009618971802000004191B0B040335181B7F
:10007000030403306420191B84040335181B033464
:100080006320B1348720B13B1D1103314E209D18F0
:100090009D13361197193511961987201D12872047
:1000A0003611B8193511B7191611B71B17110330CE
:1000B000B81AB81B0104381B2C040335371B033452
:1000C0008420B13A84200304191B84040335181BCF
:1000D000033071200704191BD0040335181B0330AB
:1000E00084201D1287203611BA193511B91916113D
:1000F000B91B17110330BA1ABA1B01043A1B2C049E
:100100000335391B033087209D18961897189818C7
:100110009918B13C0200323E32329020A718B23C0E
:1001200060042F1B03300200AF183230A4200B04F0
:10013000AE13AD18AC182E1B0330A1200304AE186B
:10014000B019A718B23C0200281A0335AB200104ED
:10015000A818A813182A3235BA200B04AE18AD130C
:10016000AC182D1B0330B720AD18B018B013B23443
:10017000B01802000B04AE18AD18AC132C1B0330E2
:1001800002000204AC18A020C13FC118D1184C3B9A
:10019000503B3404CD19F004CE19CF184004CC19CB
:1001A000CC3B3404D219F004D319D4184004D0192C
:1001B000D03B06049B199A190A04833AC719140400
:1001C000C8191E04C9192804CA193204CB193C04E1
:1001D000CC194604CD190A04C0191404C1191E040F
:1001E000C2192804C3193204C4193C04C5194604B1
:1001F000C619020032360A211A21B1331121B13F4A
:100200003139A018A0131121B1331121B13F313D73
:10021000A01811212011000D0335FD20010D03351B
:10022000042131331521313FB139B1320200B13EE1
:10023000313E0200A018313FB1320200B13E313DE3
:10024000B13F313A02000E360E3ECB323421CB3E66
:10025000D03FD03B10049E131E1B033034219E1848
:100260009F132A2ADC2A7D29833E34118A19B3344C
:100270003E2133178319BE173E1701003317831928
:10028000833EBE173E17833A0100313149219C1845
:100290004B219C189C131C11B5195B21921811114C
:1002A000931902009318101192190200101192195B
:1002B0001111931902003511000D03355221010D62
:1002C00003354E2156214E04261B03300200A6188A
:1002D0008637B23174210B04A513A418251B0330F3
:1002E0000200A518323802000B04A518A413241B21
:1002F00003300200A418323C02003232B2359121A0
:100300002704833A4F1B100403354E1B03348C2102
:10031000CE130335CF130200CE18CF18833E3138E9
:100320000200833ACE18CF18833E313C02001404F9
:10033000211B03300200A1180633A7211504A313C3
:10034000A218231B03300200A318B23902001504BF
:10035000A213A318221B03300200A218B23D020010
:10036000B818C72AB9181404B619B7185E2AB42ADF
:100370000334B8130204B913391B0330B321381105
:100380000335C421B01802000204B01902003C2A4F
:100390006E2AE12A6404B619B7185E2A082BE52AEA
:1003A000C428BB2A052B0C2BD72A8E3B0A2B0E2BDD
:1003B000F12A0F2B952A7D2AD6211F110335020021
:1003C0009F18941303359513FD04151BE904033599
:1003D000141B0330ED21941895181511B61914113A
:1003E000B5191820B42A0B040330FE21AA13A9184A
:1003F0002A1B03300200AA18323D0200AA18A913D2
:10040000291B03300200A91832390200B518B618AA
:100410001211B5191311B61932361022B518B618C3
:100420003511833AD019833E3611833AD11902002F
:10043000B519E004881C212212041F221404881D0F
:1004400028223511000D03351C22010D03351E2213
:10045000083802001C042B1B033433220304301F12
:1004600003353322AB1360042F1B0330AF134E044C
:10047000261B0330A61302003F0484198018841A37
:100480000F04041F03313E22DF0484198018841AEC
:100490008F04041F033502004622B1310200B13D32
:1004A0001C110704033159229B131B1B03349B1897
:1004B00002009A131A1B03349A1802000104B61B97
:1004C00000040330B71AB71B3616692237130335F9
:1004D00002007804F52A7D04F52A5E22D618D71882
:1004E000C518C61885188618FF04C3198D19C219B6
:1004F0008B19871889188E3C020031300200313C7C
:10050000D22AA62A0304833EB619B7185E2AB02958
:10051000CD224D2A1B11C7088419001190191A11F8
:10052000C0088419001191190200632932349A22FB
:10053000F2299D22AB18AA18A9188B205011833ECE
:10054000D419833A5111833ECF190200CC3E0000EA
:1005500000000300000000000200463B0D3B0B3F83
:10056000C63B8D3F8B3B0200B5188833B922B518C6
:10057000B51335150200FF04833ED219D118D319E3
:10058000E9223136C522323E0200323A0200E0044E
:10059000881C1404881D08380200FC2AF92AE92A5C
:1005A0008E3B0200ED2AFF2A022B8E3F0200C63D41
:1005B0008D3D8B39863902001404211B0330A113B1
:1005C0000200CC3ABF04C119020046390D3D0B3977
:1005D00002004B3BD03BCB3E02004B3FD03FCB3EDB
:1005E0000200892A4529062A9E22B519B512F6224B
:1005F00002008E3C093D02008E3C093F02008E380D
:10060000093902008E38093B0200AD2AB23D0200D2
:10061000323E0200DD29FA20323CB021C12297216E
:1006200000000000000000000000000000000000CA
:1006300000000000000000000000000000000000BA
:1006400000000000000000000000000000000000AA
:10065000000000000000000000000000000000009A
:00000001FF
